{
  "_format": "hh-sol-artifact-1",
  "contractName": "Attestation",
  "sourceName": "contracts/Attestation.sol",
  "abi": [
    {
      "inputs": [],
      "stateMutability": "nonpayable",
      "type": "constructor"
    },
    {
      "anonymous": false,
      "inputs": [
        {
          "indexed": true,
          "internalType": "string",
          "name": "stageId",
          "type": "string"
        },
        {
          "indexed": false,
          "internalType": "string",
          "name": "studentName",
          "type": "string"
        },
        {
          "indexed": false,
          "internalType": "string",
          "name": "fileHash",
          "type": "string"
        },
        {
          "indexed": false,
          "internalType": "uint256",
          "name": "validationDate",
          "type": "uint256"
        }
      ],
      "name": "AttestationEnregistree",
      "type": "event"
    },
    {
      "inputs": [
        {
          "internalType": "string",
          "name": "",
          "type": "string"
        }
      ],
      "name": "attestations",
      "outputs": [
        {
          "internalType": "string",
          "name": "studentName",
          "type": "string"
        },
        {
          "internalType": "string",
          "name": "stageId",
          "type": "string"
        },
        {
          "internalType": "string",
          "name": "stageTitle",
          "type": "string"
        },
        {
          "internalType": "string",
          "name": "encadrantAcademique",
          "type": "string"
        },
        {
          "internalType": "string",
          "name": "encadrantProfessionnel",
          "type": "string"
        },
        {
          "internalType": "uint256",
          "name": "validationDate",
          "type": "uint256"
        },
        {
          "internalType": "string",
          "name": "fileHash",
          "type": "string"
        }
      ],
      "stateMutability": "view",
      "type": "function"
    },
    {
      "inputs": [
        {
          "internalType": "string",
          "name": "_studentName",
          "type": "string"
        },
        {
          "internalType": "string",
          "name": "_stageId",
          "type": "string"
        },
        {
          "internalType": "string",
          "name": "_stageTitle",
          "type": "string"
        },
        {
          "internalType": "string",
          "name": "_encadrantAca",
          "type": "string"
        },
        {
          "internalType": "string",
          "name": "_encadrantPro",
          "type": "string"
        },
        {
          "internalType": "string",
          "name": "_fileHash",
          "type": "string"
        }
      ],
      "name": "enregistrerAttestation",
      "outputs": [],
      "stateMutability": "nonpayable",
      "type": "function"
    },
    {
      "inputs": [],
      "name": "owner",
      "outputs": [
        {
          "internalType": "address",
          "name": "",
          "type": "address"
        }
      ],
      "stateMutability": "view",
      "type": "function"
    },
    {
      "inputs": [
        {
          "internalType": "string",
          "name": "_stageId",
          "type": "string"
        }
      ],
      "name": "verifierAttestation",
      "outputs": [
        {
          "internalType": "string",
          "name": "",
          "type": "string"
        },
        {
          "internalType": "string",
          "name": "",
          "type": "string"
        },
        {
          "internalType": "string",
          "name": "",
          "type": "string"
        },
        {
          "internalType": "string",
          "name": "",
          "type": "string"
        },
        {
          "internalType": "string",
          "name": "",
          "type": "string"
        },
        {
          "internalType": "uint256",
          "name": "",
          "type": "uint256"
        },
        {
          "internalType": "string",
          "name": "",
          "type": "string"
        }
      ],
      "stateMutability": "view",
      "type": "function"
    }
  ],
  "bytecode": "0x6080604052348015600f57600080fd5b50336000806101000a81548173ffffffffffffffffffffffffffffffffffffffff021916908373ffffffffffffffffffffffffffffffffffffffff1602179055506114658061005f6000396000f3fe608060405234801561001057600080fd5b506004361061004c5760003560e01c8063249d026b1461005157806366454630146100875780638da5cb5b146100a3578063e8e4577e146100c1575b600080fd5b61006b60048036038101906100669190610c44565b6100f7565b60405161007e9796959493929190610d25565b60405180910390f35b6100a1600480360381019061009c9190610dbe565b61047f565b005b6100ab610692565b6040516100b89190610f34565b60405180910390f35b6100db60048036038101906100d69190610c44565b6106b6565b6040516100ee9796959493929190610d25565b60405180910390f35b60018180516020810182018051848252602083016020850120818352809550505050505060009150905080600001805461013090610f7e565b80601f016020809104026020016040519081016040528092919081815260200182805461015c90610f7e565b80156101a95780601f1061017e576101008083540402835291602001916101a9565b820191906000526020600020905b81548152906001019060200180831161018c57829003601f168201915b5050505050908060010180546101be90610f7e565b80601f01602080910402602001604051908101604052809291908181526020018280546101ea90610f7e565b80156102375780601f1061020c57610100808354040283529160200191610237565b820191906000526020600020905b81548152906001019060200180831161021a57829003601f168201915b50505050509080600201805461024c90610f7e565b80601f016020809104026020016040519081016040528092919081815260200182805461027890610f7e565b80156102c55780601f1061029a576101008083540402835291602001916102c5565b820191906000526020600020905b8154815290600101906020018083116102a857829003601f168201915b5050505050908060030180546102da90610f7e565b80601f016020809104026020016040519081016040528092919081815260200182805461030690610f7e565b80156103535780601f1061032857610100808354040283529160200191610353565b820191906000526020600020905b81548152906001019060200180831161033657829003601f168201915b50505050509080600401805461036890610f7e565b80601f016020809104026020016040519081016040528092919081815260200182805461039490610f7e565b80156103e15780601f106103b6576101008083540402835291602001916103e1565b820191906000526020600020905b8154815290600101906020018083116103c457829003601f168201915b5050505050908060050154908060060180546103fc90610f7e565b80601f016020809104026020016040519081016040528092919081815260200182805461042890610f7e565b80156104755780601f1061044a57610100808354040283529160200191610475565b820191906000526020600020905b81548152906001019060200180831161045857829003601f168201915b5050505050905087565b60008054906101000a900473ffffffffffffffffffffffffffffffffffffffff1673ffffffffffffffffffffffffffffffffffffffff163373ffffffffffffffffffffffffffffffffffffffff161461050d576040517f08c379a000000000000000000000000000000000000000000000000000000000815260040161050490611021565b60405180910390fd5b6000855111610551576040517f08c379a00000000000000000000000000000000000000000000000000000000081526004016105489061108d565b60405180910390fd5b60006040518060e001604052808881526020018781526020018681526020018581526020018481526020014281526020018381525090508060018760405161059991906110e9565b908152602001604051809103902060008201518160000190816105bc91906112ac565b5060208201518160010190816105d291906112ac565b5060408201518160020190816105e891906112ac565b5060608201518160030190816105fe91906112ac565b50608082015181600401908161061491906112ac565b5060a0820151816005015560c082015181600601908161063491906112ac565b509050508560405161064691906110e9565b60405180910390207f0da4ff1a4cfce4d2f7e849b2a5f3248ac10febe6f449e8e079823e1a1cf7c12f8884426040516106819392919061137e565b60405180910390a250505050505050565b60008054906101000a900473ffffffffffffffffffffffffffffffffffffffff1681565b60608060608060606000606060006001896040516106d491906110e9565b90815260200160405180910390206040518060e00160405290816000820180546106fd90610f7e565b80601f016020809104026020016040519081016040528092919081815260200182805461072990610f7e565b80156107765780601f1061074b57610100808354040283529160200191610776565b820191906000526020600020905b81548152906001019060200180831161075957829003601f168201915b5050505050815260200160018201805461078f90610f7e565b80601f01602080910402602001604051908101604052809291908181526020018280546107bb90610f7e565b80156108085780601f106107dd57610100808354040283529160200191610808565b820191906000526020600020905b8154815290600101906020018083116107eb57829003601f168201915b5050505050815260200160028201805461082190610f7e565b80601f016020809104026020016040519081016040528092919081815260200182805461084d90610f7e565b801561089a5780601f1061086f5761010080835404028352916020019161089a565b820191906000526020600020905b81548152906001019060200180831161087d57829003601f168201915b505050505081526020016003820180546108b390610f7e565b80601f01602080910402602001604051908101604052809291908181526020018280546108df90610f7e565b801561092c5780601f106109015761010080835404028352916020019161092c565b820191906000526020600020905b81548152906001019060200180831161090f57829003601f168201915b5050505050815260200160048201805461094590610f7e565b80601f016020809104026020016040519081016040528092919081815260200182805461097190610f7e565b80156109be5780601f10610993576101008083540402835291602001916109be565b820191906000526020600020905b8154815290600101906020018083116109a157829003601f168201915b50505050508152602001600582015481526020016006820180546109e190610f7e565b80601f0160208091040260200160405190810160405280929190818152602001828054610a0d90610f7e565b8015610a5a5780601f10610a2f57610100808354040283529160200191610a5a565b820191906000526020600020905b815481529060010190602001808311610a3d57829003601f168201915b5050505050815250509050600081602001515111610aad576040517f08c379a0000000000000000000000000000000000000000000000000000000008152600401610aa49061140f565b60405180910390fd5b806000015181602001518260400151836060015184608001518560a001518660c00151975097509750975097509750975050919395979092949650565b6000604051905090565b600080fd5b600080fd5b600080fd5b600080fd5b6000601f19601f8301169050919050565b7f4e487b7100000000000000000000000000000000000000000000000000000000600052604160045260246000fd5b610b5182610b08565b810181811067ffffffffffffffff82111715610b7057610b6f610b19565b5b80604052505050565b6000610b83610aea565b9050610b8f8282610b48565b919050565b600067ffffffffffffffff821115610baf57610bae610b19565b5b610bb882610b08565b9050602081019050919050565b82818337600083830152505050565b6000610be7610be284610b94565b610b79565b905082815260208101848484011115610c0357610c02610b03565b5b610c0e848285610bc5565b509392505050565b600082601f830112610c2b57610c2a610afe565b5b8135610c3b848260208601610bd4565b91505092915050565b600060208284031215610c5a57610c59610af4565b5b600082013567ffffffffffffffff811115610c7857610c77610af9565b5b610c8484828501610c16565b91505092915050565b600081519050919050565b600082825260208201905092915050565b60005b83811015610cc7578082015181840152602081019050610cac565b60008484015250505050565b6000610cde82610c8d565b610ce88185610c98565b9350610cf8818560208601610ca9565b610d0181610b08565b840191505092915050565b6000819050919050565b610d1f81610d0c565b82525050565b600060e0820190508181036000830152610d3f818a610cd3565b90508181036020830152610d538189610cd3565b90508181036040830152610d678188610cd3565b90508181036060830152610d7b8187610cd3565b90508181036080830152610d8f8186610cd3565b9050610d9e60a0830185610d16565b81810360c0830152610db08184610cd3565b905098975050505050505050565b60008060008060008060c08789031215610ddb57610dda610af4565b5b600087013567ffffffffffffffff811115610df957610df8610af9565b5b610e0589828a01610c16565b965050602087013567ffffffffffffffff811115610e2657610e25610af9565b5b610e3289828a01610c16565b955050604087013567ffffffffffffffff811115610e5357610e52610af9565b5b610e5f89828a01610c16565b945050606087013567ffffffffffffffff811115610e8057610e7f610af9565b5b610e8c89828a01610c16565b935050608087013567ffffffffffffffff811115610ead57610eac610af9565b5b610eb989828a01610c16565b92505060a087013567ffffffffffffffff811115610eda57610ed9610af9565b5b610ee689828a01610c16565b9150509295509295509295565b600073ffffffffffffffffffffffffffffffffffffffff82169050919050565b6000610f1e82610ef3565b9050919050565b610f2e81610f13565b82525050565b6000602082019050610f496000830184610f25565b92915050565b7f4e487b7100000000000000000000000000000000000000000000000000000000600052602260045260246000fd5b60006002820490506001821680610f9657607f821691505b602082108103610fa957610fa8610f4f565b5b50919050565b7f5365756c206c6520726573706f6e7361626c6520656e7472657072697365202060008201527f706575742065786563757465722063656c612e00000000000000000000000000602082015250565b600061100b603383610c98565b915061101682610faf565b604082019050919050565b6000602082019050818103600083015261103a81610ffe565b9050919050565b7f4964656e74696669616e74206465207374616765207265717569730000000000600082015250565b6000611077601b83610c98565b915061108282611041565b602082019050919050565b600060208201905081810360008301526110a68161106a565b9050919050565b600081905092915050565b60006110c382610c8d565b6110cd81856110ad565b93506110dd818560208601610ca9565b80840191505092915050565b60006110f582846110b8565b915081905092915050565b60008190508160005260206000209050919050565b60006020601f8301049050919050565b600082821b905092915050565b6000600883026111627fffffffffffffffffffffffffffffffffffffffffffffffffffffffffffffffff82611125565b61116c8683611125565b95508019841693508086168417925050509392505050565b6000819050919050565b60006111a96111a461119f84610d0c565b611184565b610d0c565b9050919050565b6000819050919050565b6111c38361118e565b6111d76111cf826111b0565b848454611132565b825550505050565b600090565b6111ec6111df565b6111f78184846111ba565b505050565b5b8181101561121b576112106000826111e4565b6001810190506111fd565b5050565b601f8211156112605761123181611100565b61123a84611115565b81016020851015611249578190505b61125d61125585611115565b8301826111fc565b50505b505050565b600082821c905092915050565b600061128360001984600802611265565b1980831691505092915050565b600061129c8383611272565b9150826002028217905092915050565b6112b582610c8d565b67ffffffffffffffff8111156112ce576112cd610b19565b5b6112d88254610f7e565b6112e382828561121f565b600060209050601f8311600181146113165760008415611304578287015190505b61130e8582611290565b865550611376565b601f19841661132486611100565b60005b8281101561134c57848901518255600182019150602085019450602081019050611327565b868310156113695784890151611365601f891682611272565b8355505b6001600288020188555050505b505050505050565b600060608201905081810360008301526113988186610cd3565b905081810360208301526113ac8185610cd3565b90506113bb6040830184610d16565b949350505050565b7f6174746573746174696f6e206e6f6e2074726f75766565200000000000000000600082015250565b60006113f9601883610c98565b9150611404826113c3565b602082019050919050565b60006020820190508181036000830152611428816113ec565b905091905056fea2646970667358221220bffb29e25a861faf05e2c6981b255958b6602a53ecd08ba7b4e07806cffe58d464736f6c634300081c0033",
  "linkReferences": {},
  "deployedLinkReferences": {}
}