{
  "_format": "hh-sol-artifact-1",
  "contractName": "AttestationContract",
  "sourceName": "contracts/AttestationContract.sol",
  "abi": [
    {
      "anonymous": false,
      "inputs": [
        {
          "indexed": true,
          "internalType": "address",
          "name": "issuer",
          "type": "address"
        },
        {
          "indexed": true,
          "internalType": "string",
          "name": "stageIdentifier",
          "type": "string"
        },
        {
          "indexed": false,
          "internalType": "string",
          "name": "reportIdentifier",
          "type": "string"
        },
        {
          "indexed": false,
          "internalType": "string",
          "name": "fileHash",
          "type": "string"
        },
        {
          "indexed": false,
          "internalType": "uint256",
          "name": "timestamp",
          "type": "uint256"
        }
      ],
      "name": "AttestationPublished",
      "type": "event"
    },
    {
      "anonymous": false,
      "inputs": [
        {
          "indexed": true,
          "internalType": "address",
          "name": "encadrant",
          "type": "address"
        },
        {
          "indexed": false,
          "internalType": "string",
          "name": "identifiantRapport",
          "type": "string"
        },
        {
          "indexed": false,
          "internalType": "uint256",
          "name": "timestamp",
          "type": "uint256"
        }
      ],
      "name": "ReportValidated",
      "type": "event"
    },
    {
      "anonymous": false,
      "inputs": [
        {
          "indexed": true,
          "internalType": "address",
          "name": "tier",
          "type": "address"
        },
        {
          "indexed": false,
          "internalType": "string",
          "name": "identifiantRapport",
          "type": "string"
        },
        {
          "indexed": false,
          "internalType": "uint256",
          "name": "timestamp",
          "type": "uint256"
        }
      ],
      "name": "TimeoutValidated",
      "type": "event"
    },
    {
      "inputs": [
        {
          "internalType": "string",
          "name": "stageIdentifier",
          "type": "string"
        }
      ],
      "name": "exists",
      "outputs": [
        {
          "internalType": "bool",
          "name": "",
          "type": "bool"
        }
      ],
      "stateMutability": "view",
      "type": "function"
    },
    {
      "inputs": [
        {
          "internalType": "string",
          "name": "stageIdentifier",
          "type": "string"
        }
      ],
      "name": "getAttestation",
      "outputs": [
        {
          "internalType": "string",
          "name": "fileHash",
          "type": "string"
        },
        {
          "internalType": "string",
          "name": "reportIdentifier",
          "type": "string"
        },
        {
          "internalType": "address",
          "name": "issuer",
          "type": "address"
        },
        {
          "internalType": "uint256",
          "name": "timestamp",
          "type": "uint256"
        }
      ],
      "stateMutability": "view",
      "type": "function"
    },
    {
      "inputs": [
        {
          "internalType": "string",
          "name": "stageIdentifier",
          "type": "string"
        },
        {
          "internalType": "string",
          "name": "reportIdentifier",
          "type": "string"
        },
        {
          "internalType": "string",
          "name": "fileHash",
          "type": "string"
        }
      ],
      "name": "publishAttestation",
      "outputs": [],
      "stateMutability": "nonpayable",
      "type": "function"
    },
    {
      "inputs": [
        {
          "internalType": "string",
          "name": "rapportId",
          "type": "string"
        }
      ],
      "name": "timeoutValidate",
      "outputs": [],
      "stateMutability": "nonpayable",
      "type": "function"
    },
    {
      "inputs": [
        {
          "internalType": "string",
          "name": "rapportId",
          "type": "string"
        }
      ],
      "name": "validateReport",
      "outputs": [],
      "stateMutability": "nonpayable",
      "type": "function"
    }
  ],
  "bytecode": "0x6080604052348015600f57600080fd5b506112f68061001f6000396000f3fe608060405234801561001057600080fd5b50600436106100575760003560e01c8063261a323e1461005c57806345047fa51461008c57806362d35c6d146100a8578063d607daf6146100c4578063edd22137146100f7575b600080fd5b610076600480360381019061007191906108dc565b610113565b6040516100839190610944565b60405180910390f35b6100a660048036038101906100a191906108dc565b61014d565b005b6100c260048036038101906100bd91906108dc565b6101e9565b005b6100de60048036038101906100d991906108dc565b610285565b6040516100ee9493929190610a49565b60405180910390f35b610111600480360381019061010c9190610a9c565b6104ee565b005b6000808383604051610126929190610b8f565b908152602001604051809103902060040160009054906101000a900460ff16905092915050565b60008282905011610193576040517f08c379a000000000000000000000000000000000000000000000000000000000815260040161018a90610bf4565b60405180910390fd5b3373ffffffffffffffffffffffffffffffffffffffff167fac06c13f7fd31fb26858758eb2cc481458f7fa947b1c53ba421b2fc905d0a4218383426040516101dd93929190610c41565b60405180910390a25050565b6000828290501161022f576040517f08c379a000000000000000000000000000000000000000000000000000000000815260040161022690610bf4565b60405180910390fd5b3373ffffffffffffffffffffffffffffffffffffffff167fff6272a3aa61d34f993c64e574a665a4a07a00279c163c4ef36269081961694d83834260405161027993929190610c41565b60405180910390a25050565b6060806000806000868660405161029d929190610b8f565b908152602001604051809103902060040160009054906101000a900460ff166102fb576040517f08c379a00000000000000000000000000000000000000000000000000000000081526004016102f290610cbf565b60405180910390fd5b600080878760405161030e929190610b8f565b90815260200160405180910390206040518060a001604052908160008201805461033790610d0e565b80601f016020809104026020016040519081016040528092919081815260200182805461036390610d0e565b80156103b05780601f10610385576101008083540402835291602001916103b0565b820191906000526020600020905b81548152906001019060200180831161039357829003601f168201915b505050505081526020016001820180546103c990610d0e565b80601f01602080910402602001604051908101604052809291908181526020018280546103f590610d0e565b80156104425780601f1061041757610100808354040283529160200191610442565b820191906000526020600020905b81548152906001019060200180831161042557829003601f168201915b505050505081526020016002820160009054906101000a900473ffffffffffffffffffffffffffffffffffffffff1673ffffffffffffffffffffffffffffffffffffffff1673ffffffffffffffffffffffffffffffffffffffff168152602001600382015481526020016004820160009054906101000a900460ff1615151515815250509050806000015181602001518260400151836060015194509450945094505092959194509250565b60008686905011610534576040517f08c379a000000000000000000000000000000000000000000000000000000000815260040161052b90610d8b565b60405180910390fd5b6000848490501161057a576040517f08c379a000000000000000000000000000000000000000000000000000000000815260040161057190610df7565b60405180910390fd5b600082829050116105c0576040517f08c379a00000000000000000000000000000000000000000000000000000000081526004016105b790610e63565b60405180910390fd5b600086866040516105d2929190610b8f565b908152602001604051809103902060040160009054906101000a900460ff1615610631576040517f08c379a000000000000000000000000000000000000000000000000000000000815260040161062890610ecf565b60405180910390fd5b6040518060a0016040528083838080601f016020809104026020016040519081016040528093929190818152602001838380828437600081840152601f19601f82011690508083019250505050505050815260200185858080601f016020809104026020016040519081016040528093929190818152602001838380828437600081840152601f19601f8201169050808301925050505050505081526020013373ffffffffffffffffffffffffffffffffffffffff168152602001428152602001600115158152506000878760405161070b929190610b8f565b9081526020016040518091039020600082015181600001908161072e91906110ca565b50602082015181600101908161074491906110ca565b5060408201518160020160006101000a81548173ffffffffffffffffffffffffffffffffffffffff021916908373ffffffffffffffffffffffffffffffffffffffff1602179055506060820151816003015560808201518160040160006101000a81548160ff02191690831515021790555090505060018686909180600181540180825580915050600190039060005260206000200160009091929091929091929091925091826107f69291906111a7565b508585604051610807929190610b8f565b60405180910390203373ffffffffffffffffffffffffffffffffffffffff167f0943e8eb694a5f13be9f9a57026ccec8291b195463ed7565bb9785d1b1df4016868686864260405161085d959493929190611277565b60405180910390a3505050505050565b600080fd5b600080fd5b600080fd5b600080fd5b600080fd5b60008083601f84011261089c5761089b610877565b5b8235905067ffffffffffffffff8111156108b9576108b861087c565b5b6020830191508360018202830111156108d5576108d4610881565b5b9250929050565b600080602083850312156108f3576108f261086d565b5b600083013567ffffffffffffffff81111561091157610910610872565b5b61091d85828601610886565b92509250509250929050565b60008115159050919050565b61093e81610929565b82525050565b60006020820190506109596000830184610935565b92915050565b600081519050919050565b600082825260208201905092915050565b60005b8381101561099957808201518184015260208101905061097e565b60008484015250505050565b6000601f19601f8301169050919050565b60006109c18261095f565b6109cb818561096a565b93506109db81856020860161097b565b6109e4816109a5565b840191505092915050565b600073ffffffffffffffffffffffffffffffffffffffff82169050919050565b6000610a1a826109ef565b9050919050565b610a2a81610a0f565b82525050565b6000819050919050565b610a4381610a30565b82525050565b60006080820190508181036000830152610a6381876109b6565b90508181036020830152610a7781866109b6565b9050610a866040830185610a21565b610a936060830184610a3a565b95945050505050565b60008060008060008060608789031215610ab957610ab861086d565b5b600087013567ffffffffffffffff811115610ad757610ad6610872565b5b610ae389828a01610886565b9650965050602087013567ffffffffffffffff811115610b0657610b05610872565b5b610b1289828a01610886565b9450945050604087013567ffffffffffffffff811115610b3557610b34610872565b5b610b4189828a01610886565b92509250509295509295509295565b600081905092915050565b82818337600083830152505050565b6000610b768385610b50565b9350610b83838584610b5b565b82840190509392505050565b6000610b9c828486610b6a565b91508190509392505050565b7f526170706f727420494420726571756972656400000000000000000000000000600082015250565b6000610bde60138361096a565b9150610be982610ba8565b602082019050919050565b60006020820190508181036000830152610c0d81610bd1565b9050919050565b6000610c20838561096a565b9350610c2d838584610b5b565b610c36836109a5565b840190509392505050565b60006040820190508181036000830152610c5c818587610c14565b9050610c6b6020830184610a3a565b949350505050565b7f4e6f7420666f756e640000000000000000000000000000000000000000000000600082015250565b6000610ca960098361096a565b9150610cb482610c73565b602082019050919050565b60006020820190508181036000830152610cd881610c9c565b9050919050565b7f4e487b7100000000000000000000000000000000000000000000000000000000600052602260045260246000fd5b60006002820490506001821680610d2657607f821691505b602082108103610d3957610d38610cdf565b5b50919050565b7f5374616765204944207265717569726564000000000000000000000000000000600082015250565b6000610d7560118361096a565b9150610d8082610d3f565b602082019050919050565b60006020820190508181036000830152610da481610d68565b9050919050565b7f5265706f72742049442072657175697265640000000000000000000000000000600082015250565b6000610de160128361096a565b9150610dec82610dab565b602082019050919050565b60006020820190508181036000830152610e1081610dd4565b9050919050565b7f4861736820726571756972656400000000000000000000000000000000000000600082015250565b6000610e4d600d8361096a565b9150610e5882610e17565b602082019050919050565b60006020820190508181036000830152610e7c81610e40565b9050919050565b7f416c726561647920657869737473000000000000000000000000000000000000600082015250565b6000610eb9600e8361096a565b9150610ec482610e83565b602082019050919050565b60006020820190508181036000830152610ee881610eac565b9050919050565b7f4e487b7100000000000000000000000000000000000000000000000000000000600052604160045260246000fd5b60008190508160005260206000209050919050565b60006020601f8301049050919050565b600082821b905092915050565b600060088302610f807fffffffffffffffffffffffffffffffffffffffffffffffffffffffffffffffff82610f43565b610f8a8683610f43565b95508019841693508086168417925050509392505050565b6000819050919050565b6000610fc7610fc2610fbd84610a30565b610fa2565b610a30565b9050919050565b6000819050919050565b610fe183610fac565b610ff5610fed82610fce565b848454610f50565b825550505050565b600090565b61100a610ffd565b611015818484610fd8565b505050565b5b818110156110395761102e600082611002565b60018101905061101b565b5050565b601f82111561107e5761104f81610f1e565b61105884610f33565b81016020851015611067578190505b61107b61107385610f33565b83018261101a565b50505b505050565b600082821c905092915050565b60006110a160001984600802611083565b1980831691505092915050565b60006110ba8383611090565b9150826002028217905092915050565b6110d38261095f565b67ffffffffffffffff8111156110ec576110eb610eef565b5b6110f68254610d0e565b61110182828561103d565b600060209050601f8311600181146111345760008415611122578287015190505b61112c85826110ae565b865550611194565b601f19841661114286610f1e565b60005b8281101561116a57848901518255600182019150602085019450602081019050611145565b868310156111875784890151611183601f891682611090565b8355505b6001600288020188555050505b505050505050565b600082905092915050565b6111b1838361119c565b67ffffffffffffffff8111156111ca576111c9610eef565b5b6111d48254610d0e565b6111df82828561103d565b6000601f83116001811461120e57600084156111fc578287013590505b61120685826110ae565b86555061126e565b601f19841661121c86610f1e565b60005b828110156112445784890135825560018201915060208501945060208101905061121f565b86831015611261578489013561125d601f891682611090565b8355505b6001600288020188555050505b50505050505050565b60006060820190508181036000830152611292818789610c14565b905081810360208301526112a7818587610c14565b90506112b66040830184610a3a565b969550505050505056fea2646970667358221220352641c294e89bc443caaecef53f29f477f33b8b396dae758ef9a719f7f02b5364736f6c634300081c0033",
  "linkReferences": {},
  "deployedLinkReferences": {}
}