{
  "_format": "hh-sol-artifact-1",
  "contractName": "AttestationContract",
  "sourceName": "contracts/AttestationContract.sol",
  "abi": [
    {
      "anonymous": false,
      "inputs": [
        {
          "indexed": false,
          "internalType": "string",
          "name": "identifiant",
          "type": "string"
        },
        {
          "indexed": false,
          "internalType": "string",
          "name": "hashIPFS",
          "type": "string"
        },
        {
          "indexed": false,
          "internalType": "string",
          "name": "etudiantIdentifiant",
          "type": "string"
        },
        {
          "indexed": false,
          "internalType": "address",
          "name": "emetteur",
          "type": "address"
        }
      ],
      "name": "AttestationPubliee",
      "type": "event"
    },
    {
      "inputs": [
        {
          "internalType": "string",
          "name": "",
          "type": "string"
        }
      ],
      "name": "attestations",
      "outputs": [
        {
          "internalType": "string",
          "name": "identifiant",
          "type": "string"
        },
        {
          "internalType": "string",
          "name": "hashIPFS",
          "type": "string"
        },
        {
          "internalType": "string",
          "name": "etudiantIdentifiant",
          "type": "string"
        },
        {
          "internalType": "uint256",
          "name": "timestamp",
          "type": "uint256"
        },
        {
          "internalType": "address",
          "name": "emetteur",
          "type": "address"
        }
      ],
      "stateMutability": "view",
      "type": "function"
    },
    {
      "inputs": [
        {
          "internalType": "string",
          "name": "identifiant",
          "type": "string"
        }
      ],
      "name": "getAttestation",
      "outputs": [
        {
          "internalType": "string",
          "name": "",
          "type": "string"
        },
        {
          "internalType": "string",
          "name": "",
          "type": "string"
        },
        {
          "internalType": "string",
          "name": "",
          "type": "string"
        },
        {
          "internalType": "uint256",
          "name": "",
          "type": "uint256"
        },
        {
          "internalType": "address",
          "name": "",
          "type": "address"
        }
      ],
      "stateMutability": "view",
      "type": "function"
    },
    {
      "inputs": [
        {
          "internalType": "string",
          "name": "identifiant",
          "type": "string"
        },
        {
          "internalType": "string",
          "name": "hashIPFS",
          "type": "string"
        },
        {
          "internalType": "string",
          "name": "etudiantIdentifiant",
          "type": "string"
        }
      ],
      "name": "publierAttestation",
      "outputs": [],
      "stateMutability": "nonpayable",
      "type": "function"
    }
  ],
  "bytecode": "0x6080604052348015600f57600080fd5b50610e9f8061001f6000396000f3fe608060405234801561001057600080fd5b50600436106100415760003560e01c8063249d026b14610046578063a109683b1461007a578063d607daf614610096575b600080fd5b610060600480360381019061005b9190610841565b6100ca565b604051610071959493929190610963565b60405180910390f35b610094600480360381019061008f91906109cb565b6102ce565b005b6100b060048036038101906100ab9190610841565b610470565b6040516100c1959493929190610963565b60405180910390f35b60008180516020810182018051848252602083016020850120818352809550505050505060009150905080600001805461010390610aa1565b80601f016020809104026020016040519081016040528092919081815260200182805461012f90610aa1565b801561017c5780601f106101515761010080835404028352916020019161017c565b820191906000526020600020905b81548152906001019060200180831161015f57829003601f168201915b50505050509080600101805461019190610aa1565b80601f01602080910402602001604051908101604052809291908181526020018280546101bd90610aa1565b801561020a5780601f106101df5761010080835404028352916020019161020a565b820191906000526020600020905b8154815290600101906020018083116101ed57829003601f168201915b50505050509080600201805461021f90610aa1565b80601f016020809104026020016040519081016040528092919081815260200182805461024b90610aa1565b80156102985780601f1061026d57610100808354040283529160200191610298565b820191906000526020600020905b81548152906001019060200180831161027b57829003601f168201915b5050505050908060030154908060040160009054906101000a900473ffffffffffffffffffffffffffffffffffffffff16905085565b600080846040516102df9190610b0e565b908152602001604051809103902060010180546102fb90610aa1565b90501461033d576040517f08c379a000000000000000000000000000000000000000000000000000000000815260040161033490610b71565b60405180910390fd5b6040518060a001604052808481526020018381526020018281526020014281526020013373ffffffffffffffffffffffffffffffffffffffff1681525060008460405161038a9190610b0e565b908152602001604051809103902060008201518160000190816103ad9190610d3d565b5060208201518160010190816103c39190610d3d565b5060408201518160020190816103d99190610d3d565b506060820151816003015560808201518160040160006101000a81548173ffffffffffffffffffffffffffffffffffffffff021916908373ffffffffffffffffffffffffffffffffffffffff1602179055509050507fd24c748eea5710c19f1292743ac5eff25fbe7cd1e23c3512e10069ede462ce8a838383336040516104639493929190610e0f565b60405180910390a1505050565b6060806060600080600080876040516104899190610b0e565b90815260200160405180910390206040518060a00160405290816000820180546104b290610aa1565b80601f01602080910402602001604051908101604052809291908181526020018280546104de90610aa1565b801561052b5780601f106105005761010080835404028352916020019161052b565b820191906000526020600020905b81548152906001019060200180831161050e57829003601f168201915b5050505050815260200160018201805461054490610aa1565b80601f016020809104026020016040519081016040528092919081815260200182805461057090610aa1565b80156105bd5780601f10610592576101008083540402835291602001916105bd565b820191906000526020600020905b8154815290600101906020018083116105a057829003601f168201915b505050505081526020016002820180546105d690610aa1565b80601f016020809104026020016040519081016040528092919081815260200182805461060290610aa1565b801561064f5780601f106106245761010080835404028352916020019161064f565b820191906000526020600020905b81548152906001019060200180831161063257829003601f168201915b50505050508152602001600382015481526020016004820160009054906101000a900473ffffffffffffffffffffffffffffffffffffffff1673ffffffffffffffffffffffffffffffffffffffff1673ffffffffffffffffffffffffffffffffffffffff1681525050905080600001518160200151826040015183606001518460800151955095509550955095505091939590929450565b6000604051905090565b600080fd5b600080fd5b600080fd5b600080fd5b6000601f19601f8301169050919050565b7f4e487b7100000000000000000000000000000000000000000000000000000000600052604160045260246000fd5b61074e82610705565b810181811067ffffffffffffffff8211171561076d5761076c610716565b5b80604052505050565b60006107806106e7565b905061078c8282610745565b919050565b600067ffffffffffffffff8211156107ac576107ab610716565b5b6107b582610705565b9050602081019050919050565b82818337600083830152505050565b60006107e46107df84610791565b610776565b905082815260208101848484011115610800576107ff610700565b5b61080b8482856107c2565b509392505050565b600082601f830112610828576108276106fb565b5b81356108388482602086016107d1565b91505092915050565b600060208284031215610857576108566106f1565b5b600082013567ffffffffffffffff811115610875576108746106f6565b5b61088184828501610813565b91505092915050565b600081519050919050565b600082825260208201905092915050565b60005b838110156108c45780820151818401526020810190506108a9565b60008484015250505050565b60006108db8261088a565b6108e58185610895565b93506108f58185602086016108a6565b6108fe81610705565b840191505092915050565b6000819050919050565b61091c81610909565b82525050565b600073ffffffffffffffffffffffffffffffffffffffff82169050919050565b600061094d82610922565b9050919050565b61095d81610942565b82525050565b600060a082019050818103600083015261097d81886108d0565b9050818103602083015261099181876108d0565b905081810360408301526109a581866108d0565b90506109b46060830185610913565b6109c16080830184610954565b9695505050505050565b6000806000606084860312156109e4576109e36106f1565b5b600084013567ffffffffffffffff811115610a0257610a016106f6565b5b610a0e86828701610813565b935050602084013567ffffffffffffffff811115610a2f57610a2e6106f6565b5b610a3b86828701610813565b925050604084013567ffffffffffffffff811115610a5c57610a5b6106f6565b5b610a6886828701610813565b9150509250925092565b7f4e487b7100000000000000000000000000000000000000000000000000000000600052602260045260246000fd5b60006002820490506001821680610ab957607f821691505b602082108103610acc57610acb610a72565b5b50919050565b600081905092915050565b6000610ae88261088a565b610af28185610ad2565b9350610b028185602086016108a6565b80840191505092915050565b6000610b1a8284610add565b915081905092915050565b7f4174746573746174696f6e206578697374652064656a61000000000000000000600082015250565b6000610b5b601783610895565b9150610b6682610b25565b602082019050919050565b60006020820190508181036000830152610b8a81610b4e565b9050919050565b60008190508160005260206000209050919050565b60006020601f8301049050919050565b600082821b905092915050565b600060088302610bf37fffffffffffffffffffffffffffffffffffffffffffffffffffffffffffffffff82610bb6565b610bfd8683610bb6565b95508019841693508086168417925050509392505050565b6000819050919050565b6000610c3a610c35610c3084610909565b610c15565b610909565b9050919050565b6000819050919050565b610c5483610c1f565b610c68610c6082610c41565b848454610bc3565b825550505050565b600090565b610c7d610c70565b610c88818484610c4b565b505050565b5b81811015610cac57610ca1600082610c75565b600181019050610c8e565b5050565b601f821115610cf157610cc281610b91565b610ccb84610ba6565b81016020851015610cda578190505b610cee610ce685610ba6565b830182610c8d565b50505b505050565b600082821c905092915050565b6000610d1460001984600802610cf6565b1980831691505092915050565b6000610d2d8383610d03565b9150826002028217905092915050565b610d468261088a565b67ffffffffffffffff811115610d5f57610d5e610716565b5b610d698254610aa1565b610d74828285610cb0565b600060209050601f831160018114610da75760008415610d95578287015190505b610d9f8582610d21565b865550610e07565b601f198416610db586610b91565b60005b82811015610ddd57848901518255600182019150602085019450602081019050610db8565b86831015610dfa5784890151610df6601f891682610d03565b8355505b6001600288020188555050505b505050505050565b60006080820190508181036000830152610e2981876108d0565b90508181036020830152610e3d81866108d0565b90508181036040830152610e5181856108d0565b9050610e606060830184610954565b9594505050505056fea264697066735822122035fa9d4f2465fcbfe798326fd994cc1df7b5f015b9beac86fba72151bcdd2ef464736f6c634300081c0033",
  "linkReferences": {},
  "deployedLinkReferences": {}
}