{
  "_format": "hh-sol-artifact-1",
  "contractName": "AttestationContract",
  "sourceName": "contracts/AttestationContract.sol",
  "abi": [
    {
      "anonymous": false,
      "inputs": [
        {
          "indexed": true,
          "internalType": "string",
          "name": "attestationId",
          "type": "string"
        },
        {
          "indexed": true,
          "internalType": "string",
          "name": "stageId",
          "type": "string"
        },
        {
          "indexed": false,
          "internalType": "string",
          "name": "reportId",
          "type": "string"
        },
        {
          "indexed": false,
          "internalType": "string",
          "name": "fileHash",
          "type": "string"
        },
        {
          "indexed": true,
          "internalType": "address",
          "name": "issuer",
          "type": "address"
        },
        {
          "indexed": false,
          "internalType": "uint256",
          "name": "timestamp",
          "type": "uint256"
        }
      ],
      "name": "AttestationPublished",
      "type": "event"
    },
    {
      "anonymous": false,
      "inputs": [
        {
          "indexed": true,
          "internalType": "string",
          "name": "rapportId",
          "type": "string"
        },
        {
          "indexed": false,
          "internalType": "address",
          "name": "confirmer",
          "type": "address"
        },
        {
          "indexed": false,
          "internalType": "uint256",
          "name": "timestamp",
          "type": "uint256"
        }
      ],
      "name": "DoubleValidated",
      "type": "event"
    },
    {
      "anonymous": false,
      "inputs": [
        {
          "indexed": true,
          "internalType": "address",
          "name": "encadrant",
          "type": "address"
        },
        {
          "indexed": true,
          "internalType": "string",
          "name": "rapportId",
          "type": "string"
        },
        {
          "indexed": false,
          "internalType": "string",
          "name": "role",
          "type": "string"
        },
        {
          "indexed": false,
          "internalType": "uint256",
          "name": "timestamp",
          "type": "uint256"
        }
      ],
      "name": "EncadrantValidated",
      "type": "event"
    },
    {
      "anonymous": false,
      "inputs": [
        {
          "indexed": true,
          "internalType": "address",
          "name": "tier",
          "type": "address"
        },
        {
          "indexed": true,
          "internalType": "string",
          "name": "rapportId",
          "type": "string"
        },
        {
          "indexed": false,
          "internalType": "string",
          "name": "entite",
          "type": "string"
        },
        {
          "indexed": false,
          "internalType": "uint256",
          "name": "timestamp",
          "type": "uint256"
        }
      ],
      "name": "TierValidated",
      "type": "event"
    },
    {
      "inputs": [
        {
          "internalType": "string",
          "name": "rapportId",
          "type": "string"
        }
      ],
      "name": "confirmDoubleValidation",
      "outputs": [],
      "stateMutability": "nonpayable",
      "type": "function"
    },
    {
      "inputs": [
        {
          "internalType": "string",
          "name": "attestationId",
          "type": "string"
        }
      ],
      "name": "exists",
      "outputs": [
        {
          "internalType": "bool",
          "name": "",
          "type": "bool"
        }
      ],
      "stateMutability": "view",
      "type": "function"
    },
    {
      "inputs": [
        {
          "internalType": "string",
          "name": "attestationId",
          "type": "string"
        }
      ],
      "name": "getAttestation",
      "outputs": [
        {
          "internalType": "string",
          "name": "stageId",
          "type": "string"
        },
        {
          "internalType": "string",
          "name": "reportId",
          "type": "string"
        },
        {
          "internalType": "string",
          "name": "fileHash",
          "type": "string"
        },
        {
          "internalType": "address",
          "name": "issuer",
          "type": "address"
        },
        {
          "internalType": "uint256",
          "name": "timestamp",
          "type": "uint256"
        }
      ],
      "stateMutability": "view",
      "type": "function"
    },
    {
      "inputs": [
        {
          "internalType": "string",
          "name": "attestationId",
          "type": "string"
        },
        {
          "internalType": "string",
          "name": "stageId",
          "type": "string"
        },
        {
          "internalType": "string",
          "name": "reportId",
          "type": "string"
        },
        {
          "internalType": "string",
          "name": "fileHash",
          "type": "string"
        }
      ],
      "name": "publishAttestation",
      "outputs": [],
      "stateMutability": "nonpayable",
      "type": "function"
    },
    {
      "inputs": [
        {
          "internalType": "string",
          "name": "rapportId",
          "type": "string"
        },
        {
          "internalType": "string",
          "name": "role",
          "type": "string"
        }
      ],
      "name": "validateAsEncadrant",
      "outputs": [],
      "stateMutability": "nonpayable",
      "type": "function"
    },
    {
      "inputs": [
        {
          "internalType": "string",
          "name": "rapportId",
          "type": "string"
        },
        {
          "internalType": "string",
          "name": "entite",
          "type": "string"
        }
      ],
      "name": "validateAsTier",
      "outputs": [],
      "stateMutability": "nonpayable",
      "type": "function"
    }
  ],
  "bytecode": "0x6080604052348015600f57600080fd5b506118ab8061001f6000396000f3fe608060405234801561001057600080fd5b50600436106100625760003560e01c80630263076714610067578063261a323e1461008357806343aeca33146100b3578063c7f35174146100cf578063d066635e146100eb578063d607daf614610107575b600080fd5b610081600480360381019061007c9190610d57565b61013b565b005b61009d60048036038101906100989190610dd8565b6102ab565b6040516100aa9190610e40565b60405180910390f35b6100cd60048036038101906100c89190610e5b565b6102e5565b005b6100e960048036038101906100e49190610dd8565b610746565b005b61010560048036038101906101009190610d57565b6107e1565b005b610121600480360381019061011c9190610dd8565b610951565b60405161013295949392919061102e565b60405180910390f35b60008484905011610181576040517f08c379a0000000000000000000000000000000000000000000000000000000008152600401610178906110e2565b60405180910390fd5b7f92d66d449c6f9aeafb5a3d4ce2e3d98b05df955a95df002827124d689f8b70c482826040516101b2929190611141565b604051809103902014806101fc57507fffdded45a0c08e08840bc0cf536c3c53b3c461b766c787c10a6c29a3071ded1e82826040516101f2929190611141565b6040518091039020145b61023b576040517f08c379a0000000000000000000000000000000000000000000000000000000008152600401610232906111a6565b60405180910390fd5b838360405161024b9291906111f6565b60405180910390203373ffffffffffffffffffffffffffffffffffffffff167fb1b8089f9784bb2bdee22487ea8c7829590e1f7f97ff3fb97a7bfbfca1607d7484844260405161029d9392919061123c565b60405180910390a350505050565b60008083836040516102be9291906111f6565b908152602001604051809103902060060160009054906101000a900460ff16905092915050565b6000888890501161032b576040517f08c379a0000000000000000000000000000000000000000000000000000000008152600401610322906112ba565b60405180910390fd5b60008686905011610371576040517f08c379a000000000000000000000000000000000000000000000000000000000815260040161036890611326565b60405180910390fd5b600084849050116103b7576040517f08c379a00000000000000000000000000000000000000000000000000000000081526004016103ae906110e2565b60405180910390fd5b600082829050116103fd576040517f08c379a00000000000000000000000000000000000000000000000000000000081526004016103f490611392565b60405180910390fd5b6000888860405161040f9291906111f6565b908152602001604051809103902060060160009054906101000a900460ff161561046e576040517f08c379a0000000000000000000000000000000000000000000000000000000008152600401610465906113fe565b60405180910390fd5b6040518060e0016040528089898080601f016020809104026020016040519081016040528093929190818152602001838380828437600081840152601f19601f82011690508083019250505050505050815260200187878080601f016020809104026020016040519081016040528093929190818152602001838380828437600081840152601f19601f82011690508083019250505050505050815260200185858080601f016020809104026020016040519081016040528093929190818152602001838380828437600081840152601f19601f82011690508083019250505050505050815260200183838080601f016020809104026020016040519081016040528093929190818152602001838380828437600081840152601f19601f8201169050808301925050505050505081526020013373ffffffffffffffffffffffffffffffffffffffff16815260200142815260200160011515815250600089896040516105dc9291906111f6565b908152602001604051809103902060008201518160000190816105ff9190611659565b5060208201518160010190816106159190611659565b50604082015181600201908161062b9190611659565b5060608201518160030190816106419190611659565b5060808201518160040160006101000a81548173ffffffffffffffffffffffffffffffffffffffff021916908373ffffffffffffffffffffffffffffffffffffffff16021790555060a0820151816005015560c08201518160060160006101000a81548160ff0219169083151502179055509050503373ffffffffffffffffffffffffffffffffffffffff1686866040516106dd9291906111f6565b604051809103902089896040516106f59291906111f6565b60405180910390207f608d8059abaa4e1f787c03dcbdea519031d31656d29f8d92b822128a7eb1c9d9878787874260405161073495949392919061172b565b60405180910390a45050505050505050565b6000828290501161078c576040517f08c379a0000000000000000000000000000000000000000000000000000000008152600401610783906110e2565b60405180910390fd5b818160405161079c9291906111f6565b60405180910390207f75e4159401735bd992340676dbe3a40a586369b11226714a35a5236b4a7e32bc33426040516107d5929190611774565b60405180910390a25050565b60008484905011610827576040517f08c379a000000000000000000000000000000000000000000000000000000000815260040161081e906110e2565b60405180910390fd5b7f24e41b5d08049d3dc011c7e0bf9d39ebdeed4fff8edf637248758b09da5bbe468282604051610858929190611141565b604051809103902014806108a257507f7dc8e305e44d175b921d615a14e887b193980e7f7c9e48ab93402fcc26eafed98282604051610898929190611141565b6040518091039020145b6108e1576040517f08c379a00000000000000000000000000000000000000000000000000000000081526004016108d8906117e9565b60405180910390fd5b83836040516108f19291906111f6565b60405180910390203373ffffffffffffffffffffffffffffffffffffffff167fa7a816d6907718123cfe6c07d5335ff087cc87bbbff55f48e491dfeb16ac964c8484426040516109439392919061123c565b60405180910390a350505050565b60608060606000806000878760405161096b9291906111f6565b908152602001604051809103902060060160009054906101000a900460ff166109c9576040517f08c379a00000000000000000000000000000000000000000000000000000000081526004016109c090611855565b60405180910390fd5b60008088886040516109dc9291906111f6565b90815260200160405180910390206040518060e0016040529081600082018054610a059061147c565b80601f0160208091040260200160405190810160405280929190818152602001828054610a319061147c565b8015610a7e5780601f10610a5357610100808354040283529160200191610a7e565b820191906000526020600020905b815481529060010190602001808311610a6157829003601f168201915b50505050508152602001600182018054610a979061147c565b80601f0160208091040260200160405190810160405280929190818152602001828054610ac39061147c565b8015610b105780601f10610ae557610100808354040283529160200191610b10565b820191906000526020600020905b815481529060010190602001808311610af357829003601f168201915b50505050508152602001600282018054610b299061147c565b80601f0160208091040260200160405190810160405280929190818152602001828054610b559061147c565b8015610ba25780601f10610b7757610100808354040283529160200191610ba2565b820191906000526020600020905b815481529060010190602001808311610b8557829003601f168201915b50505050508152602001600382018054610bbb9061147c565b80601f0160208091040260200160405190810160405280929190818152602001828054610be79061147c565b8015610c345780601f10610c0957610100808354040283529160200191610c34565b820191906000526020600020905b815481529060010190602001808311610c1757829003601f168201915b505050505081526020016004820160009054906101000a900473ffffffffffffffffffffffffffffffffffffffff1673ffffffffffffffffffffffffffffffffffffffff1673ffffffffffffffffffffffffffffffffffffffff168152602001600582015481526020016006820160009054906101000a900460ff161515151581525050905080602001518160400151826060015183608001518460a0015195509550955095509550509295509295909350565b600080fd5b600080fd5b600080fd5b600080fd5b600080fd5b60008083601f840112610d1757610d16610cf2565b5b8235905067ffffffffffffffff811115610d3457610d33610cf7565b5b602083019150836001820283011115610d5057610d4f610cfc565b5b9250929050565b60008060008060408587031215610d7157610d70610ce8565b5b600085013567ffffffffffffffff811115610d8f57610d8e610ced565b5b610d9b87828801610d01565b9450945050602085013567ffffffffffffffff811115610dbe57610dbd610ced565b5b610dca87828801610d01565b925092505092959194509250565b60008060208385031215610def57610dee610ce8565b5b600083013567ffffffffffffffff811115610e0d57610e0c610ced565b5b610e1985828601610d01565b92509250509250929050565b60008115159050919050565b610e3a81610e25565b82525050565b6000602082019050610e556000830184610e31565b92915050565b6000806000806000806000806080898b031215610e7b57610e7a610ce8565b5b600089013567ffffffffffffffff811115610e9957610e98610ced565b5b610ea58b828c01610d01565b9850985050602089013567ffffffffffffffff811115610ec857610ec7610ced565b5b610ed48b828c01610d01565b9650965050604089013567ffffffffffffffff811115610ef757610ef6610ced565b5b610f038b828c01610d01565b9450945050606089013567ffffffffffffffff811115610f2657610f25610ced565b5b610f328b828c01610d01565b92509250509295985092959890939650565b600081519050919050565b600082825260208201905092915050565b60005b83811015610f7e578082015181840152602081019050610f63565b60008484015250505050565b6000601f19601f8301169050919050565b6000610fa682610f44565b610fb08185610f4f565b9350610fc0818560208601610f60565b610fc981610f8a565b840191505092915050565b600073ffffffffffffffffffffffffffffffffffffffff82169050919050565b6000610fff82610fd4565b9050919050565b61100f81610ff4565b82525050565b6000819050919050565b61102881611015565b82525050565b600060a08201905081810360008301526110488188610f9b565b9050818103602083015261105c8187610f9b565b905081810360408301526110708186610f9b565b905061107f6060830185611006565b61108c608083018461101f565b9695505050505050565b7f526170706f727420494420726571756973000000000000000000000000000000600082015250565b60006110cc601183610f4f565b91506110d782611096565b602082019050919050565b600060208201905081810360008301526110fb816110bf565b9050919050565b600081905092915050565b82818337600083830152505050565b60006111288385611102565b935061113583858461110d565b82840190509392505050565b600061114e82848661111c565b91508190509392505050565b7f456e74697465206e6f6e2076616c696465000000000000000000000000000000600082015250565b6000611190601183610f4f565b915061119b8261115a565b602082019050919050565b600060208201905081810360008301526111bf81611183565b9050919050565b600081905092915050565b60006111dd83856111c6565b93506111ea83858461110d565b82840190509392505050565b60006112038284866111d1565b91508190509392505050565b600061121b8385610f4f565b935061122883858461110d565b61123183610f8a565b840190509392505050565b6000604082019050818103600083015261125781858761120f565b9050611266602083018461101f565b949350505050565b7f4174746573746174696f6e204944207265717569730000000000000000000000600082015250565b60006112a4601583610f4f565b91506112af8261126e565b602082019050919050565b600060208201905081810360008301526112d381611297565b9050919050565b7f5374616765204944207265717569730000000000000000000000000000000000600082015250565b6000611310600f83610f4f565b915061131b826112da565b602082019050919050565b6000602082019050818103600083015261133f81611303565b9050919050565b7f4861736820647520666963686965722072657175697300000000000000000000600082015250565b600061137c601683610f4f565b915061138782611346565b602082019050919050565b600060208201905081810360008301526113ab8161136f565b9050919050565b7f4174746573746174696f6e2064656a61206578697374616e7465000000000000600082015250565b60006113e8601a83610f4f565b91506113f3826113b2565b602082019050919050565b60006020820190508181036000830152611417816113db565b9050919050565b7f4e487b7100000000000000000000000000000000000000000000000000000000600052604160045260246000fd5b7f4e487b7100000000000000000000000000000000000000000000000000000000600052602260045260246000fd5b6000600282049050600182168061149457607f821691505b6020821081036114a7576114a661144d565b5b50919050565b60008190508160005260206000209050919050565b60006020601f8301049050919050565b600082821b905092915050565b60006008830261150f7fffffffffffffffffffffffffffffffffffffffffffffffffffffffffffffffff826114d2565b61151986836114d2565b95508019841693508086168417925050509392505050565b6000819050919050565b600061155661155161154c84611015565b611531565b611015565b9050919050565b6000819050919050565b6115708361153b565b61158461157c8261155d565b8484546114df565b825550505050565b600090565b61159961158c565b6115a4818484611567565b505050565b5b818110156115c8576115bd600082611591565b6001810190506115aa565b5050565b601f82111561160d576115de816114ad565b6115e7846114c2565b810160208510156115f6578190505b61160a611602856114c2565b8301826115a9565b50505b505050565b600082821c905092915050565b600061163060001984600802611612565b1980831691505092915050565b6000611649838361161f565b9150826002028217905092915050565b61166282610f44565b67ffffffffffffffff81111561167b5761167a61141e565b5b611685825461147c565b6116908282856115cc565b600060209050601f8311600181146116c357600084156116b1578287015190505b6116bb858261163d565b865550611723565b601f1984166116d1866114ad565b60005b828110156116f9578489015182556001820191506020850194506020810190506116d4565b868310156117165784890151611712601f89168261161f565b8355505b6001600288020188555050505b505050505050565b6000606082019050818103600083015261174681878961120f565b9050818103602083015261175b81858761120f565b905061176a604083018461101f565b9695505050505050565b60006040820190506117896000830185611006565b611796602083018461101f565b9392505050565b7f526f6c65206e6f6e2076616c6964650000000000000000000000000000000000600082015250565b60006117d3600f83610f4f565b91506117de8261179d565b602082019050919050565b60006020820190508181036000830152611802816117c6565b9050919050565b7f4174746573746174696f6e206e6f6e2074726f75766565000000000000000000600082015250565b600061183f601783610f4f565b915061184a82611809565b602082019050919050565b6000602082019050818103600083015261186e81611832565b905091905056fea2646970667358221220039f42a3b47852abae0d36ce5908a1df32fdcea1cd000d053b6301b6a3bc304264736f6c634300081c0033",
  "linkReferences": {},
  "deployedLinkReferences": {}
}