{
  "_format": "hh-sol-artifact-1",
  "contractName": "AttestationContract",
  "sourceName": "contracts/AttestationContract.sol",
  "abi": [
    {
      "anonymous": false,
      "inputs": [
        {
          "indexed": true,
          "internalType": "address",
          "name": "issuer",
          "type": "address"
        },
        {
          "indexed": true,
          "internalType": "string",
          "name": "stageIdentifier",
          "type": "string"
        },
        {
          "indexed": false,
          "internalType": "string",
          "name": "reportIdentifier",
          "type": "string"
        },
        {
          "indexed": false,
          "internalType": "string",
          "name": "fileHash",
          "type": "string"
        },
        {
          "indexed": false,
          "internalType": "uint256",
          "name": "timestamp",
          "type": "uint256"
        }
      ],
      "name": "AttestationPublished",
      "type": "event"
    },
    {
      "inputs": [
        {
          "internalType": "string",
          "name": "stageIdentifier",
          "type": "string"
        }
      ],
      "name": "exists",
      "outputs": [
        {
          "internalType": "bool",
          "name": "",
          "type": "bool"
        }
      ],
      "stateMutability": "view",
      "type": "function"
    },
    {
      "inputs": [
        {
          "internalType": "string",
          "name": "stageIdentifier",
          "type": "string"
        }
      ],
      "name": "getAttestation",
      "outputs": [
        {
          "internalType": "string",
          "name": "fileHash",
          "type": "string"
        },
        {
          "internalType": "string",
          "name": "reportIdentifier",
          "type": "string"
        },
        {
          "internalType": "address",
          "name": "issuer",
          "type": "address"
        },
        {
          "internalType": "uint256",
          "name": "timestamp",
          "type": "uint256"
        }
      ],
      "stateMutability": "view",
      "type": "function"
    },
    {
      "inputs": [
        {
          "internalType": "string",
          "name": "stageIdentifier",
          "type": "string"
        },
        {
          "internalType": "string",
          "name": "reportIdentifier",
          "type": "string"
        },
        {
          "internalType": "string",
          "name": "fileHash",
          "type": "string"
        }
      ],
      "name": "publishAttestation",
      "outputs": [],
      "stateMutability": "nonpayable",
      "type": "function"
    }
  ],
  "bytecode": "0x6080604052348015600f57600080fd5b506110d28061001f6000396000f3fe608060405234801561001057600080fd5b50600436106100415760003560e01c8063261a323e14610046578063d607daf614610076578063edd22137146100a9575b600080fd5b610060600480360381019061005b9190610756565b6100c5565b60405161006d91906107be565b60405180910390f35b610090600480360381019061008b9190610756565b6100ff565b6040516100a094939291906108c3565b60405180910390f35b6100c360048036038101906100be9190610916565b610368565b005b60008083836040516100d8929190610a09565b908152602001604051809103902060040160009054906101000a900460ff16905092915050565b60608060008060008686604051610117929190610a09565b908152602001604051809103902060040160009054906101000a900460ff16610175576040517f08c379a000000000000000000000000000000000000000000000000000000000815260040161016c90610a6e565b60405180910390fd5b6000808787604051610188929190610a09565b90815260200160405180910390206040518060a00160405290816000820180546101b190610abd565b80601f01602080910402602001604051908101604052809291908181526020018280546101dd90610abd565b801561022a5780601f106101ff5761010080835404028352916020019161022a565b820191906000526020600020905b81548152906001019060200180831161020d57829003601f168201915b5050505050815260200160018201805461024390610abd565b80601f016020809104026020016040519081016040528092919081815260200182805461026f90610abd565b80156102bc5780601f10610291576101008083540402835291602001916102bc565b820191906000526020600020905b81548152906001019060200180831161029f57829003601f168201915b505050505081526020016002820160009054906101000a900473ffffffffffffffffffffffffffffffffffffffff1673ffffffffffffffffffffffffffffffffffffffff1673ffffffffffffffffffffffffffffffffffffffff168152602001600382015481526020016004820160009054906101000a900460ff1615151515815250509050806000015181602001518260400151836060015194509450945094505092959194509250565b600086869050116103ae576040517f08c379a00000000000000000000000000000000000000000000000000000000081526004016103a590610b3a565b60405180910390fd5b600084849050116103f4576040517f08c379a00000000000000000000000000000000000000000000000000000000081526004016103eb90610ba6565b60405180910390fd5b6000828290501161043a576040517f08c379a000000000000000000000000000000000000000000000000000000000815260040161043190610c12565b60405180910390fd5b6000868660405161044c929190610a09565b908152602001604051809103902060040160009054906101000a900460ff16156104ab576040517f08c379a00000000000000000000000000000000000000000000000000000000081526004016104a290610c7e565b60405180910390fd5b6040518060a0016040528083838080601f016020809104026020016040519081016040528093929190818152602001838380828437600081840152601f19601f82011690508083019250505050505050815260200185858080601f016020809104026020016040519081016040528093929190818152602001838380828437600081840152601f19601f8201169050808301925050505050505081526020013373ffffffffffffffffffffffffffffffffffffffff1681526020014281526020016001151581525060008787604051610585929190610a09565b908152602001604051809103902060008201518160000190816105a89190610e79565b5060208201518160010190816105be9190610e79565b5060408201518160020160006101000a81548173ffffffffffffffffffffffffffffffffffffffff021916908373ffffffffffffffffffffffffffffffffffffffff1602179055506060820151816003015560808201518160040160006101000a81548160ff0219169083151502179055509050506001868690918060018154018082558091505060019003906000526020600020016000909192909192909192909192509182610670929190610f56565b508585604051610681929190610a09565b60405180910390203373ffffffffffffffffffffffffffffffffffffffff167f0943e8eb694a5f13be9f9a57026ccec8291b195463ed7565bb9785d1b1df401686868686426040516106d7959493929190611053565b60405180910390a3505050505050565b600080fd5b600080fd5b600080fd5b600080fd5b600080fd5b60008083601f840112610716576107156106f1565b5b8235905067ffffffffffffffff811115610733576107326106f6565b5b60208301915083600182028301111561074f5761074e6106fb565b5b9250929050565b6000806020838503121561076d5761076c6106e7565b5b600083013567ffffffffffffffff81111561078b5761078a6106ec565b5b61079785828601610700565b92509250509250929050565b60008115159050919050565b6107b8816107a3565b82525050565b60006020820190506107d360008301846107af565b92915050565b600081519050919050565b600082825260208201905092915050565b60005b838110156108135780820151818401526020810190506107f8565b60008484015250505050565b6000601f19601f8301169050919050565b600061083b826107d9565b61084581856107e4565b93506108558185602086016107f5565b61085e8161081f565b840191505092915050565b600073ffffffffffffffffffffffffffffffffffffffff82169050919050565b600061089482610869565b9050919050565b6108a481610889565b82525050565b6000819050919050565b6108bd816108aa565b82525050565b600060808201905081810360008301526108dd8187610830565b905081810360208301526108f18186610830565b9050610900604083018561089b565b61090d60608301846108b4565b95945050505050565b60008060008060008060608789031215610933576109326106e7565b5b600087013567ffffffffffffffff811115610951576109506106ec565b5b61095d89828a01610700565b9650965050602087013567ffffffffffffffff8111156109805761097f6106ec565b5b61098c89828a01610700565b9450945050604087013567ffffffffffffffff8111156109af576109ae6106ec565b5b6109bb89828a01610700565b92509250509295509295509295565b600081905092915050565b82818337600083830152505050565b60006109f083856109ca565b93506109fd8385846109d5565b82840190509392505050565b6000610a168284866109e4565b91508190509392505050565b7f4e6f7420666f756e640000000000000000000000000000000000000000000000600082015250565b6000610a586009836107e4565b9150610a6382610a22565b602082019050919050565b60006020820190508181036000830152610a8781610a4b565b9050919050565b7f4e487b7100000000000000000000000000000000000000000000000000000000600052602260045260246000fd5b60006002820490506001821680610ad557607f821691505b602082108103610ae857610ae7610a8e565b5b50919050565b7f5374616765204944207265717569726564000000000000000000000000000000600082015250565b6000610b246011836107e4565b9150610b2f82610aee565b602082019050919050565b60006020820190508181036000830152610b5381610b17565b9050919050565b7f5265706f72742049442072657175697265640000000000000000000000000000600082015250565b6000610b906012836107e4565b9150610b9b82610b5a565b602082019050919050565b60006020820190508181036000830152610bbf81610b83565b9050919050565b7f4861736820726571756972656400000000000000000000000000000000000000600082015250565b6000610bfc600d836107e4565b9150610c0782610bc6565b602082019050919050565b60006020820190508181036000830152610c2b81610bef565b9050919050565b7f416c726561647920657869737473000000000000000000000000000000000000600082015250565b6000610c68600e836107e4565b9150610c7382610c32565b602082019050919050565b60006020820190508181036000830152610c9781610c5b565b9050919050565b7f4e487b7100000000000000000000000000000000000000000000000000000000600052604160045260246000fd5b60008190508160005260206000209050919050565b60006020601f8301049050919050565b600082821b905092915050565b600060088302610d2f7fffffffffffffffffffffffffffffffffffffffffffffffffffffffffffffffff82610cf2565b610d398683610cf2565b95508019841693508086168417925050509392505050565b6000819050919050565b6000610d76610d71610d6c846108aa565b610d51565b6108aa565b9050919050565b6000819050919050565b610d9083610d5b565b610da4610d9c82610d7d565b848454610cff565b825550505050565b600090565b610db9610dac565b610dc4818484610d87565b505050565b5b81811015610de857610ddd600082610db1565b600181019050610dca565b5050565b601f821115610e2d57610dfe81610ccd565b610e0784610ce2565b81016020851015610e16578190505b610e2a610e2285610ce2565b830182610dc9565b50505b505050565b600082821c905092915050565b6000610e5060001984600802610e32565b1980831691505092915050565b6000610e698383610e3f565b9150826002028217905092915050565b610e82826107d9565b67ffffffffffffffff811115610e9b57610e9a610c9e565b5b610ea58254610abd565b610eb0828285610dec565b600060209050601f831160018114610ee35760008415610ed1578287015190505b610edb8582610e5d565b865550610f43565b601f198416610ef186610ccd565b60005b82811015610f1957848901518255600182019150602085019450602081019050610ef4565b86831015610f365784890151610f32601f891682610e3f565b8355505b6001600288020188555050505b505050505050565b600082905092915050565b610f608383610f4b565b67ffffffffffffffff811115610f7957610f78610c9e565b5b610f838254610abd565b610f8e828285610dec565b6000601f831160018114610fbd5760008415610fab578287013590505b610fb58582610e5d565b86555061101d565b601f198416610fcb86610ccd565b60005b82811015610ff357848901358255600182019150602085019450602081019050610fce565b86831015611010578489013561100c601f891682610e3f565b8355505b6001600288020188555050505b50505050505050565b600061103283856107e4565b935061103f8385846109d5565b6110488361081f565b840190509392505050565b6000606082019050818103600083015261106e818789611026565b90508181036020830152611083818587611026565b905061109260408301846108b4565b969550505050505056fea2646970667358221220076616bd01d5abd71ea5b78426a317ec97b1a682929344906b0d096164b5da9164736f6c634300081c0033",
  "linkReferences": {},
  "deployedLinkReferences": {}
}