{
  "_format": "hh-sol-artifact-1",
  "contractName": "Auth",
  "sourceName": "contracts/Auth.sol",
  "abi": [
    {
      "anonymous": false,
      "inputs": [
        {
          "indexed": true,
          "internalType": "address",
          "name": "user",
          "type": "address"
        }
      ],
      "name": "RoleReset",
      "type": "event"
    },
    {
      "anonymous": false,
      "inputs": [
        {
          "indexed": true,
          "internalType": "address",
          "name": "user",
          "type": "address"
        },
        {
          "indexed": false,
          "internalType": "enum Auth.Role",
          "name": "role",
          "type": "uint8"
        }
      ],
      "name": "UserRegistered",
      "type": "event"
    },
    {
      "inputs": [
        {
          "internalType": "address",
          "name": "user",
          "type": "address"
        }
      ],
      "name": "getRole",
      "outputs": [
        {
          "internalType": "enum Auth.Role",
          "name": "",
          "type": "uint8"
        }
      ],
      "stateMutability": "view",
      "type": "function"
    },
    {
      "inputs": [
        {
          "internalType": "address",
          "name": "user",
          "type": "address"
        }
      ],
      "name": "resetRole",
      "outputs": [],
      "stateMutability": "nonpayable",
      "type": "function"
    },
    {
      "inputs": [
        {
          "internalType": "address",
          "name": "",
          "type": "address"
        }
      ],
      "name": "roles",
      "outputs": [
        {
          "internalType": "enum Auth.Role",
          "name": "",
          "type": "uint8"
        }
      ],
      "stateMutability": "view",
      "type": "function"
    },
    {
      "inputs": [
        {
          "internalType": "enum Auth.Role",
          "name": "_role",
          "type": "uint8"
        }
      ],
      "name": "selfRegister",
      "outputs": [],
      "stateMutability": "nonpayable",
      "type": "function"
    }
  ],
  "bytecode": "0x6080604052348015600f57600080fd5b506108668061001f6000396000f3fe608060405234801561001057600080fd5b506004361061004c5760003560e01c806323e1f32814610051578063442767331461006d578063993746421461009d578063f57ad503146100cd575b600080fd5b61006b60048036038101906100669190610525565b6100e9565b005b610087600480360381019061008291906105b0565b6102b9565b6040516100949190610654565b60405180910390f35b6100b760048036038101906100b291906105b0565b61030e565b6040516100c49190610654565b60405180910390f35b6100e760048036038101906100e291906105b0565b61032e565b005b600060058111156100fd576100fc6105dd565b5b8160058111156101105761010f6105dd565b5b03610150576040517f08c379a0000000000000000000000000000000000000000000000000000000008152600401610147906106cc565b60405180910390fd5b60006005811115610164576101636105dd565b5b6000803373ffffffffffffffffffffffffffffffffffffffff1673ffffffffffffffffffffffffffffffffffffffff16815260200190815260200160002060009054906101000a900460ff1660058111156101c2576101c16105dd565b5b14610202576040517f08c379a00000000000000000000000000000000000000000000000000000000081526004016101f990610738565b60405180910390fd5b806000803373ffffffffffffffffffffffffffffffffffffffff1673ffffffffffffffffffffffffffffffffffffffff16815260200190815260200160002060006101000a81548160ff02191690836005811115610263576102626105dd565b5b02179055503373ffffffffffffffffffffffffffffffffffffffff167f8e18574f8a7333e6a87112742a55853a643e2f0550f4e1a3a2c3f1bb2994441d826040516102ae9190610654565b60405180910390a250565b60008060008373ffffffffffffffffffffffffffffffffffffffff1673ffffffffffffffffffffffffffffffffffffffff16815260200190815260200160002060009054906101000a900460ff169050919050565b60006020528060005260406000206000915054906101000a900460ff1681565b8073ffffffffffffffffffffffffffffffffffffffff163373ffffffffffffffffffffffffffffffffffffffff161461039c576040517f08c379a0000000000000000000000000000000000000000000000000000000008152600401610393906107a4565b60405180910390fd5b600060058111156103b0576103af6105dd565b5b6000808373ffffffffffffffffffffffffffffffffffffffff1673ffffffffffffffffffffffffffffffffffffffff16815260200190815260200160002060009054906101000a900460ff16600581111561040e5761040d6105dd565b5b0361044e576040517f08c379a000000000000000000000000000000000000000000000000000000000815260040161044590610810565b60405180910390fd5b60008060008373ffffffffffffffffffffffffffffffffffffffff1673ffffffffffffffffffffffffffffffffffffffff16815260200190815260200160002060006101000a81548160ff021916908360058111156104b0576104af6105dd565b5b02179055508073ffffffffffffffffffffffffffffffffffffffff167fb44ed29be49db8223c33226743957088db97c79045de7174a454f52a0e471a8460405160405180910390a250565b600080fd5b6006811061050d57600080fd5b50565b60008135905061051f81610500565b92915050565b60006020828403121561053b5761053a6104fb565b5b600061054984828501610510565b91505092915050565b600073ffffffffffffffffffffffffffffffffffffffff82169050919050565b600061057d82610552565b9050919050565b61058d81610572565b811461059857600080fd5b50565b6000813590506105aa81610584565b92915050565b6000602082840312156105c6576105c56104fb565b5b60006105d48482850161059b565b91505092915050565b7f4e487b7100000000000000000000000000000000000000000000000000000000600052602160045260246000fd5b6006811061061d5761061c6105dd565b5b50565b600081905061062e8261060c565b919050565b600061063e82610620565b9050919050565b61064e81610633565b82525050565b60006020820190506106696000830184610645565b92915050565b600082825260208201905092915050565b7f496e76616c696420726f6c650000000000000000000000000000000000000000600082015250565b60006106b6600c8361066f565b91506106c182610680565b602082019050919050565b600060208201905081810360008301526106e5816106a9565b9050919050565b7f416c726561647920726567697374657265640000000000000000000000000000600082015250565b600061072260128361066f565b915061072d826106ec565b602082019050919050565b6000602082019050818103600083015261075181610715565b9050919050565b7f4f6e6c792074686520757365722063616e207265736574000000000000000000600082015250565b600061078e60178361066f565b915061079982610758565b602082019050919050565b600060208201905081810360008301526107bd81610781565b9050919050565b7f4e6f742072656769737465726564000000000000000000000000000000000000600082015250565b60006107fa600e8361066f565b9150610805826107c4565b602082019050919050565b60006020820190508181036000830152610829816107ed565b905091905056fea26469706673582212202926ab429fccda9392e3158ce81b0f2e194e8d4e1c4a8774914c67cf1a13248264736f6c634300081c0033",
  "linkReferences": {},
  "deployedLinkReferences": {}
}